{
  "_format": "hh-sol-artifact-1",
  "contractName": "SoulClubNiftyzone",
  "sourceName": "contracts/SoulClubNiftyzone.sol",
  "abi": [
    {
      "inputs": [],
      "stateMutability": "nonpayable",
      "type": "constructor"
    },
    {
      "anonymous": false,
      "inputs": [
        {
          "indexed": true,
          "internalType": "address",
          "name": "owner",
          "type": "address"
        },
        {
          "indexed": true,
          "internalType": "address",
          "name": "approved",
          "type": "address"
        },
        {
          "indexed": true,
          "internalType": "uint256",
          "name": "tokenId",
          "type": "uint256"
        }
      ],
      "name": "Approval",
      "type": "event"
    },
    {
      "anonymous": false,
      "inputs": [
        {
          "indexed": true,
          "internalType": "address",
          "name": "owner",
          "type": "address"
        },
        {
          "indexed": true,
          "internalType": "address",
          "name": "operator",
          "type": "address"
        },
        {
          "indexed": false,
          "internalType": "bool",
          "name": "approved",
          "type": "bool"
        }
      ],
      "name": "ApprovalForAll",
      "type": "event"
    },
    {
      "anonymous": false,
      "inputs": [
        {
          "indexed": true,
          "internalType": "address",
          "name": "previousOwner",
          "type": "address"
        },
        {
          "indexed": true,
          "internalType": "address",
          "name": "newOwner",
          "type": "address"
        }
      ],
      "name": "OwnershipTransferred",
      "type": "event"
    },
    {
      "anonymous": false,
      "inputs": [
        {
          "indexed": true,
          "internalType": "address",
          "name": "from",
          "type": "address"
        },
        {
          "indexed": true,
          "internalType": "address",
          "name": "to",
          "type": "address"
        },
        {
          "indexed": true,
          "internalType": "uint256",
          "name": "tokenId",
          "type": "uint256"
        }
      ],
      "name": "Transfer",
      "type": "event"
    },
    {
      "inputs": [
        {
          "internalType": "address",
          "name": "to",
          "type": "address"
        },
        {
          "internalType": "uint256",
          "name": "tokenId",
          "type": "uint256"
        }
      ],
      "name": "approve",
      "outputs": [],
      "stateMutability": "nonpayable",
      "type": "function"
    },
    {
      "inputs": [
        {
          "internalType": "address",
          "name": "owner",
          "type": "address"
        }
      ],
      "name": "balanceOf",
      "outputs": [
        {
          "internalType": "uint256",
          "name": "",
          "type": "uint256"
        }
      ],
      "stateMutability": "view",
      "type": "function"
    },
    {
      "inputs": [],
      "name": "count",
      "outputs": [
        {
          "internalType": "uint256",
          "name": "",
          "type": "uint256"
        }
      ],
      "stateMutability": "view",
      "type": "function"
    },
    {
      "inputs": [
        {
          "internalType": "uint256",
          "name": "tokenId",
          "type": "uint256"
        }
      ],
      "name": "getApproved",
      "outputs": [
        {
          "internalType": "address",
          "name": "",
          "type": "address"
        }
      ],
      "stateMutability": "view",
      "type": "function"
    },
    {
      "inputs": [
        {
          "internalType": "address",
          "name": "owner",
          "type": "address"
        },
        {
          "internalType": "address",
          "name": "operator",
          "type": "address"
        }
      ],
      "name": "isApprovedForAll",
      "outputs": [
        {
          "internalType": "bool",
          "name": "",
          "type": "bool"
        }
      ],
      "stateMutability": "view",
      "type": "function"
    },
    {
      "inputs": [
        {
          "internalType": "string",
          "name": "uri",
          "type": "string"
        }
      ],
      "name": "isContentOwned",
      "outputs": [
        {
          "internalType": "bool",
          "name": "",
          "type": "bool"
        }
      ],
      "stateMutability": "view",
      "type": "function"
    },
    {
      "inputs": [],
      "name": "maxMintPerAddress",
      "outputs": [
        {
          "internalType": "uint256",
          "name": "",
          "type": "uint256"
        }
      ],
      "stateMutability": "view",
      "type": "function"
    },
    {
      "inputs": [],
      "name": "maxSupply",
      "outputs": [
        {
          "internalType": "uint256",
          "name": "",
          "type": "uint256"
        }
      ],
      "stateMutability": "view",
      "type": "function"
    },
    {
      "inputs": [],
      "name": "name",
      "outputs": [
        {
          "internalType": "string",
          "name": "",
          "type": "string"
        }
      ],
      "stateMutability": "view",
      "type": "function"
    },
    {
      "inputs": [],
      "name": "owner",
      "outputs": [
        {
          "internalType": "address",
          "name": "",
          "type": "address"
        }
      ],
      "stateMutability": "view",
      "type": "function"
    },
    {
      "inputs": [
        {
          "internalType": "uint256",
          "name": "tokenId",
          "type": "uint256"
        }
      ],
      "name": "ownerOf",
      "outputs": [
        {
          "internalType": "address",
          "name": "",
          "type": "address"
        }
      ],
      "stateMutability": "view",
      "type": "function"
    },
    {
      "inputs": [
        {
          "internalType": "address",
          "name": "recipient",
          "type": "address"
        },
        {
          "internalType": "string",
          "name": "metadataURI",
          "type": "string"
        }
      ],
      "name": "payToMint",
      "outputs": [
        {
          "internalType": "uint256",
          "name": "",
          "type": "uint256"
        }
      ],
      "stateMutability": "payable",
      "type": "function"
    },
    {
      "inputs": [],
      "name": "renounceOwnership",
      "outputs": [],
      "stateMutability": "nonpayable",
      "type": "function"
    },
    {
      "inputs": [
        {
          "internalType": "address",
          "name": "to",
          "type": "address"
        },
        {
          "internalType": "string",
          "name": "uri",
          "type": "string"
        }
      ],
      "name": "safeMint",
      "outputs": [],
      "stateMutability": "nonpayable",
      "type": "function"
    },
    {
      "inputs": [
        {
          "internalType": "address",
          "name": "from",
          "type": "address"
        },
        {
          "internalType": "address",
          "name": "to",
          "type": "address"
        },
        {
          "internalType": "uint256",
          "name": "tokenId",
          "type": "uint256"
        }
      ],
      "name": "safeTransferFrom",
      "outputs": [],
      "stateMutability": "nonpayable",
      "type": "function"
    },
    {
      "inputs": [
        {
          "internalType": "address",
          "name": "from",
          "type": "address"
        },
        {
          "internalType": "address",
          "name": "to",
          "type": "address"
        },
        {
          "internalType": "uint256",
          "name": "tokenId",
          "type": "uint256"
        },
        {
          "internalType": "bytes",
          "name": "_data",
          "type": "bytes"
        }
      ],
      "name": "safeTransferFrom",
      "outputs": [],
      "stateMutability": "nonpayable",
      "type": "function"
    },
    {
      "inputs": [
        {
          "internalType": "address",
          "name": "operator",
          "type": "address"
        },
        {
          "internalType": "bool",
          "name": "approved",
          "type": "bool"
        }
      ],
      "name": "setApprovalForAll",
      "outputs": [],
      "stateMutability": "nonpayable",
      "type": "function"
    },
    {
      "inputs": [
        {
          "internalType": "bytes4",
          "name": "interfaceId",
          "type": "bytes4"
        }
      ],
      "name": "supportsInterface",
      "outputs": [
        {
          "internalType": "bool",
          "name": "",
          "type": "bool"
        }
      ],
      "stateMutability": "view",
      "type": "function"
    },
    {
      "inputs": [],
      "name": "symbol",
      "outputs": [
        {
          "internalType": "string",
          "name": "",
          "type": "string"
        }
      ],
      "stateMutability": "view",
      "type": "function"
    },
    {
      "inputs": [
        {
          "internalType": "uint256",
          "name": "tokenId",
          "type": "uint256"
        }
      ],
      "name": "tokenURI",
      "outputs": [
        {
          "internalType": "string",
          "name": "",
          "type": "string"
        }
      ],
      "stateMutability": "view",
      "type": "function"
    },
    {
      "inputs": [
        {
          "internalType": "address",
          "name": "from",
          "type": "address"
        },
        {
          "internalType": "address",
          "name": "to",
          "type": "address"
        },
        {
          "internalType": "uint256",
          "name": "tokenId",
          "type": "uint256"
        }
      ],
      "name": "transferFrom",
      "outputs": [],
      "stateMutability": "nonpayable",
      "type": "function"
    },
    {
      "inputs": [
        {
          "internalType": "address",
          "name": "newOwner",
          "type": "address"
        }
      ],
      "name": "transferOwnership",
      "outputs": [],
      "stateMutability": "nonpayable",
      "type": "function"
    }
  ],
  "bytecode": "0x60806040523480156200001157600080fd5b506040518060400160405280601181526020017f536f756c436c75624e696674797a6f6e650000000000000000000000000000008152506040518060400160405280600381526020017f53434e000000000000000000000000000000000000000000000000000000000081525081600090816200008f9190620003dd565b508060019081620000a19190620003dd565b5050506000620000b66200015b60201b60201c565b905080600760006101000a81548173ffffffffffffffffffffffffffffffffffffffff021916908373ffffffffffffffffffffffffffffffffffffffff1602179055508073ffffffffffffffffffffffffffffffffffffffff16600073ffffffffffffffffffffffffffffffffffffffff167f8be0079c531659141344cd1fd0a4f28419497f9722a3daafe3b4186f6b6457e060405160405180910390a350620004c4565b600033905090565b600081519050919050565b7f4e487b7100000000000000000000000000000000000000000000000000000000600052604160045260246000fd5b7f4e487b7100000000000000000000000000000000000000000000000000000000600052602260045260246000fd5b60006002820490506001821680620001e557607f821691505b602082108103620001fb57620001fa6200019d565b5b50919050565b60008190508160005260206000209050919050565b60006020601f8301049050919050565b600082821b905092915050565b600060088302620002657fffffffffffffffffffffffffffffffffffffffffffffffffffffffffffffffff8262000226565b62000271868362000226565b95508019841693508086168417925050509392505050565b6000819050919050565b6000819050919050565b6000620002be620002b8620002b28462000289565b62000293565b62000289565b9050919050565b6000819050919050565b620002da836200029d565b620002f2620002e982620002c5565b84845462000233565b825550505050565b600090565b62000309620002fa565b62000316818484620002cf565b505050565b5b818110156200033e5762000332600082620002ff565b6001810190506200031c565b5050565b601f8211156200038d57620003578162000201565b620003628462000216565b8101602085101562000372578190505b6200038a620003818562000216565b8301826200031b565b50505b505050565b600082821c905092915050565b6000620003b26000198460080262000392565b1980831691505092915050565b6000620003cd83836200039f565b9150826002028217905092915050565b620003e88262000163565b67ffffffffffffffff8111156200040457620004036200016e565b5b620004108254620001cc565b6200041d82828562000342565b600060209050601f83116001811462000455576000841562000440578287015190505b6200044c8582620003bf565b865550620004bc565b601f198416620004658662000201565b60005b828110156200048f5784890151825560018201915060208501945060208101905062000468565b86831015620004af5784890151620004ab601f8916826200039f565b8355505b6001600288020188555050505b505050505050565b613a5a80620004d46000396000f3fe6080604052600436106101355760003560e01c8063715018a6116100ab578063b88d4fde1161006f578063b88d4fde1461042d578063c87b56dd14610456578063d204c45e14610493578063d5abeb01146104bc578063e985e9c5146104e7578063f2fde38b1461052457610135565b8063715018a61461035a5780638da5cb5b1461037157806395d89b411461039c5780639f1cabc6146103c7578063a22cb4651461040457610135565b806323b872dd116100fd57806323b872dd1461023357806342842e0e1461025c578063572849c414610285578063615fd9e2146102b05780636352211e146102e057806370a082311461031d57610135565b806301ffc9a71461013a57806306661abd1461017757806306fdde03146101a2578063081812fc146101cd578063095ea7b31461020a575b600080fd5b34801561014657600080fd5b50610161600480360381019061015c91906121d0565b61054d565b60405161016e9190612218565b60405180910390f35b34801561018357600080fd5b5061018c61062f565b604051610199919061224c565b60405180910390f35b3480156101ae57600080fd5b506101b7610640565b6040516101c491906122f7565b60405180910390f35b3480156101d957600080fd5b506101f460048036038101906101ef9190612345565b6106d2565b60405161020191906123b3565b60405180910390f35b34801561021657600080fd5b50610231600480360381019061022c91906123fa565b610757565b005b34801561023f57600080fd5b5061025a6004803603810190610255919061243a565b61086e565b005b34801561026857600080fd5b50610283600480360381019061027e919061243a565b6108ce565b005b34801561029157600080fd5b5061029a6108ee565b6040516102a7919061224c565b60405180910390f35b6102ca60048036038101906102c591906125c2565b6108f3565b6040516102d7919061224c565b60405180910390f35b3480156102ec57600080fd5b5061030760048036038101906103029190612345565b610b90565b60405161031491906123b3565b60405180910390f35b34801561032957600080fd5b50610344600480360381019061033f919061261e565b610c41565b604051610351919061224c565b60405180910390f35b34801561036657600080fd5b5061036f610cf8565b005b34801561037d57600080fd5b50610386610e35565b60405161039391906123b3565b60405180910390f35b3480156103a857600080fd5b506103b1610e5f565b6040516103be91906122f7565b60405180910390f35b3480156103d357600080fd5b506103ee60048036038101906103e9919061264b565b610ef1565b6040516103fb9190612218565b60405180910390f35b34801561041057600080fd5b5061042b600480360381019061042691906126c0565b610f2c565b005b34801561043957600080fd5b50610454600480360381019061044f91906127a1565b6110ac565b005b34801561046257600080fd5b5061047d60048036038101906104789190612345565b61110e565b60405161048a91906122f7565b60405180910390f35b34801561049f57600080fd5b506104ba60048036038101906104b591906125c2565b611120565b005b3480156104c857600080fd5b506104d1611205565b6040516104de919061224c565b60405180910390f35b3480156104f357600080fd5b5061050e60048036038101906105099190612824565b61120b565b60405161051b9190612218565b60405180910390f35b34801561053057600080fd5b5061054b6004803603810190610546919061261e565b61129f565b005b60007f80ac58cd000000000000000000000000000000000000000000000000000000007bffffffffffffffffffffffffffffffffffffffffffffffffffffffff1916827bffffffffffffffffffffffffffffffffffffffffffffffffffffffff1916148061061857507f5b5e139f000000000000000000000000000000000000000000000000000000007bffffffffffffffffffffffffffffffffffffffffffffffffffffffff1916827bffffffffffffffffffffffffffffffffffffffffffffffffffffffff1916145b8061062857506106278261144a565b5b9050919050565b600061063b60086114b4565b905090565b60606000805461064f90612893565b80601f016020809104026020016040519081016040528092919081815260200182805461067b90612893565b80156106c85780601f1061069d576101008083540402835291602001916106c8565b820191906000526020600020905b8154815290600101906020018083116106ab57829003601f168201915b5050505050905090565b60006106dd826114c2565b61071c576040517f08c379a000000000000000000000000000000000000000000000000000000000815260040161071390612936565b60405180910390fd5b6004600083815260200190815260200160002060009054906101000a900473ffffffffffffffffffffffffffffffffffffffff169050919050565b600061076282610b90565b90508073ffffffffffffffffffffffffffffffffffffffff168373ffffffffffffffffffffffffffffffffffffffff16036107d2576040517f08c379a00000000000000000000000000000000000000000000000000000000081526004016107c9906129c8565b60405180910390fd5b8073ffffffffffffffffffffffffffffffffffffffff166107f161152e565b73ffffffffffffffffffffffffffffffffffffffff161480610820575061081f8161081a61152e565b61120b565b5b61085f576040517f08c379a000000000000000000000000000000000000000000000000000000000815260040161085690612a5a565b60405180910390fd5b6108698383611536565b505050565b61087f61087961152e565b826115ef565b6108be576040517f08c379a00000000000000000000000000000000000000000000000000000000081526004016108b590612aec565b60405180910390fd5b6108c98383836116cd565b505050565b6108e9838383604051806020016040528060008152506110ac565b505050565b600381565b600060016009836040516109079190612b48565b908152602001604051809103902060009054906101000a900460ff1660ff1603610966576040517f08c379a000000000000000000000000000000000000000000000000000000000815260040161095d90612bab565b60405180910390fd5b66bf7dc3b164c0003410156109b0576040517f08c379a00000000000000000000000000000000000000000000000000000000081526004016109a790612c17565b60405180910390fd5b6003600a60003373ffffffffffffffffffffffffffffffffffffffff1673ffffffffffffffffffffffffffffffffffffffff1681526020019081526020016000205410610a32576040517f08c379a0000000000000000000000000000000000000000000000000000000008152600401610a2990612c83565b60405180910390fd5b6000610a3e60086114b4565b9050610a4a6008611928565b6001600984604051610a5c9190612b48565b908152602001604051809103902060006101000a81548160ff021916908360ff160217905550610a8c848261193e565b610a968184611b0b565b600a60003373ffffffffffffffffffffffffffffffffffffffff1673ffffffffffffffffffffffffffffffffffffffff1681526020019081526020016000206000815480929190610ae690612cd2565b91905055506107d0610af860086114b4565b10610b38576040517f08c379a0000000000000000000000000000000000000000000000000000000008152600401610b2f90612d8c565b60405180910390fd5b610b40610e35565b73ffffffffffffffffffffffffffffffffffffffff166108fc349081150290604051600060405180830381858888f19350505050158015610b85573d6000803e3d6000fd5b508091505092915050565b6000806002600084815260200190815260200160002060009054906101000a900473ffffffffffffffffffffffffffffffffffffffff169050600073ffffffffffffffffffffffffffffffffffffffff168173ffffffffffffffffffffffffffffffffffffffff1603610c38576040517f08c379a0000000000000000000000000000000000000000000000000000000008152600401610c2f90612e1e565b60405180910390fd5b80915050919050565b60008073ffffffffffffffffffffffffffffffffffffffff168273ffffffffffffffffffffffffffffffffffffffff1603610cb1576040517f08c379a0000000000000000000000000000000000000000000000000000000008152600401610ca890612eb0565b60405180910390fd5b600360008373ffffffffffffffffffffffffffffffffffffffff1673ffffffffffffffffffffffffffffffffffffffff168152602001908152602001600020549050919050565b610d0061152e565b73ffffffffffffffffffffffffffffffffffffffff16610d1e610e35565b73ffffffffffffffffffffffffffffffffffffffff1614610d74576040517f08c379a0000000000000000000000000000000000000000000000000000000008152600401610d6b90612f1c565b60405180910390fd5b600073ffffffffffffffffffffffffffffffffffffffff16600760009054906101000a900473ffffffffffffffffffffffffffffffffffffffff1673ffffffffffffffffffffffffffffffffffffffff167f8be0079c531659141344cd1fd0a4f28419497f9722a3daafe3b4186f6b6457e060405160405180910390a36000600760006101000a81548173ffffffffffffffffffffffffffffffffffffffff021916908373ffffffffffffffffffffffffffffffffffffffff160217905550565b6000600760009054906101000a900473ffffffffffffffffffffffffffffffffffffffff16905090565b606060018054610e6e90612893565b80601f0160208091040260200160405190810160405280929190818152602001828054610e9a90612893565b8015610ee75780601f10610ebc57610100808354040283529160200191610ee7565b820191906000526020600020905b815481529060010190602001808311610eca57829003601f168201915b5050505050905090565b60006001600983604051610f059190612b48565b908152602001604051809103902060009054906101000a900460ff1660ff16149050919050565b610f3461152e565b73ffffffffffffffffffffffffffffffffffffffff168273ffffffffffffffffffffffffffffffffffffffff1603610fa1576040517f08c379a0000000000000000000000000000000000000000000000000000000008152600401610f9890612f88565b60405180910390fd5b8060056000610fae61152e565b73ffffffffffffffffffffffffffffffffffffffff1673ffffffffffffffffffffffffffffffffffffffff16815260200190815260200160002060008473ffffffffffffffffffffffffffffffffffffffff1673ffffffffffffffffffffffffffffffffffffffff16815260200190815260200160002060006101000a81548160ff0219169083151502179055508173ffffffffffffffffffffffffffffffffffffffff1661105b61152e565b73ffffffffffffffffffffffffffffffffffffffff167f17307eab39ab6107e8899845ad3d59bd9653f200f220920489ca2b5937696c31836040516110a09190612218565b60405180910390a35050565b6110bd6110b761152e565b836115ef565b6110fc576040517f08c379a00000000000000000000000000000000000000000000000000000000081526004016110f390612aec565b60405180910390fd5b61110884848484611b78565b50505050565b606061111982611bd4565b9050919050565b61112861152e565b73ffffffffffffffffffffffffffffffffffffffff16611146610e35565b73ffffffffffffffffffffffffffffffffffffffff161461119c576040517f08c379a000000000000000000000000000000000000000000000000000000000815260040161119390612f1c565b60405180910390fd5b60006111a860086114b4565b90506111b46008611928565b6111be8382611d25565b6111c88183611b0b565b60016009836040516111da9190612b48565b908152602001604051809103902060006101000a81548160ff021916908360ff160217905550505050565b6107d081565b6000600560008473ffffffffffffffffffffffffffffffffffffffff1673ffffffffffffffffffffffffffffffffffffffff16815260200190815260200160002060008373ffffffffffffffffffffffffffffffffffffffff1673ffffffffffffffffffffffffffffffffffffffff16815260200190815260200160002060009054906101000a900460ff16905092915050565b6112a761152e565b73ffffffffffffffffffffffffffffffffffffffff166112c5610e35565b73ffffffffffffffffffffffffffffffffffffffff161461131b576040517f08c379a000000000000000000000000000000000000000000000000000000000815260040161131290612f1c565b60405180910390fd5b600073ffffffffffffffffffffffffffffffffffffffff168173ffffffffffffffffffffffffffffffffffffffff160361138a576040517f08c379a00000000000000000000000000000000000000000000000000000000081526004016113819061301a565b60405180910390fd5b8073ffffffffffffffffffffffffffffffffffffffff16600760009054906101000a900473ffffffffffffffffffffffffffffffffffffffff1673ffffffffffffffffffffffffffffffffffffffff167f8be0079c531659141344cd1fd0a4f28419497f9722a3daafe3b4186f6b6457e060405160405180910390a380600760006101000a81548173ffffffffffffffffffffffffffffffffffffffff021916908373ffffffffffffffffffffffffffffffffffffffff16021790555050565b60007f01ffc9a7000000000000000000000000000000000000000000000000000000007bffffffffffffffffffffffffffffffffffffffffffffffffffffffff1916827bffffffffffffffffffffffffffffffffffffffffffffffffffffffff1916149050919050565b600081600001549050919050565b60008073ffffffffffffffffffffffffffffffffffffffff166002600084815260200190815260200160002060009054906101000a900473ffffffffffffffffffffffffffffffffffffffff1673ffffffffffffffffffffffffffffffffffffffff1614159050919050565b600033905090565b816004600083815260200190815260200160002060006101000a81548173ffffffffffffffffffffffffffffffffffffffff021916908373ffffffffffffffffffffffffffffffffffffffff160217905550808273ffffffffffffffffffffffffffffffffffffffff166115a983610b90565b73ffffffffffffffffffffffffffffffffffffffff167f8c5be1e5ebec7d5bd14f71427d1e84f3dd0314c0f7b2291e5b200ac8c7c3b92560405160405180910390a45050565b60006115fa826114c2565b611639576040517f08c379a0000000000000000000000000000000000000000000000000000000008152600401611630906130ac565b60405180910390fd5b600061164483610b90565b90508073ffffffffffffffffffffffffffffffffffffffff168473ffffffffffffffffffffffffffffffffffffffff1614806116b357508373ffffffffffffffffffffffffffffffffffffffff1661169b846106d2565b73ffffffffffffffffffffffffffffffffffffffff16145b806116c457506116c3818561120b565b5b91505092915050565b8273ffffffffffffffffffffffffffffffffffffffff166116ed82610b90565b73ffffffffffffffffffffffffffffffffffffffff1614611743576040517f08c379a000000000000000000000000000000000000000000000000000000000815260040161173a9061313e565b60405180910390fd5b600073ffffffffffffffffffffffffffffffffffffffff168273ffffffffffffffffffffffffffffffffffffffff16036117b2576040517f08c379a00000000000000000000000000000000000000000000000000000000081526004016117a9906131d0565b60405180910390fd5b6117bd838383611d43565b6117c8600082611536565b6001600360008573ffffffffffffffffffffffffffffffffffffffff1673ffffffffffffffffffffffffffffffffffffffff168152602001908152602001600020600082825461181891906131f0565b925050819055506001600360008473ffffffffffffffffffffffffffffffffffffffff1673ffffffffffffffffffffffffffffffffffffffff168152602001908152602001600020600082825461186f9190613224565b92505081905550816002600083815260200190815260200160002060006101000a81548173ffffffffffffffffffffffffffffffffffffffff021916908373ffffffffffffffffffffffffffffffffffffffff160217905550808273ffffffffffffffffffffffffffffffffffffffff168473ffffffffffffffffffffffffffffffffffffffff167fddf252ad1be2c89b69c2b068fc378daa952ba7f163c4a11628f55a4df523b3ef60405160405180910390a4505050565b6001816000016000828254019250508190555050565b600073ffffffffffffffffffffffffffffffffffffffff168273ffffffffffffffffffffffffffffffffffffffff16036119ad576040517f08c379a00000000000000000000000000000000000000000000000000000000081526004016119a4906132a4565b60405180910390fd5b6119b6816114c2565b156119f6576040517f08c379a00000000000000000000000000000000000000000000000000000000081526004016119ed90613310565b60405180910390fd5b611a0260008383611d43565b6001600360008473ffffffffffffffffffffffffffffffffffffffff1673ffffffffffffffffffffffffffffffffffffffff1681526020019081526020016000206000828254611a529190613224565b92505081905550816002600083815260200190815260200160002060006101000a81548173ffffffffffffffffffffffffffffffffffffffff021916908373ffffffffffffffffffffffffffffffffffffffff160217905550808273ffffffffffffffffffffffffffffffffffffffff16600073ffffffffffffffffffffffffffffffffffffffff167fddf252ad1be2c89b69c2b068fc378daa952ba7f163c4a11628f55a4df523b3ef60405160405180910390a45050565b611b14826114c2565b611b53576040517f08c379a0000000000000000000000000000000000000000000000000000000008152600401611b4a906133a2565b60405180910390fd5b80600660008481526020019081526020016000209081611b73919061356e565b505050565b611b838484846116cd565b611b8f84848484611d48565b611bce576040517f08c379a0000000000000000000000000000000000000000000000000000000008152600401611bc5906136b2565b60405180910390fd5b50505050565b6060611bdf826114c2565b611c1e576040517f08c379a0000000000000000000000000000000000000000000000000000000008152600401611c1590613744565b60405180910390fd5b6000600660008481526020019081526020016000208054611c3e90612893565b80601f0160208091040260200160405190810160405280929190818152602001828054611c6a90612893565b8015611cb75780601f10611c8c57610100808354040283529160200191611cb7565b820191906000526020600020905b815481529060010190602001808311611c9a57829003601f168201915b505050505090506000611cc8611ecf565b90506000815103611cdd578192505050611d20565b600082511115611d12578082604051602001611cfa929190613764565b60405160208183030381529060405292505050611d20565b611d1b84611eef565b925050505b919050565b611d3f828260405180602001604052806000815250611f96565b5050565b505050565b6000611d698473ffffffffffffffffffffffffffffffffffffffff16611ff1565b15611ec2578373ffffffffffffffffffffffffffffffffffffffff1663150b7a02611d9261152e565b8786866040518563ffffffff1660e01b8152600401611db494939291906137dd565b6020604051808303816000875af1925050508015611df057506040513d601f19601f82011682018060405250810190611ded919061383e565b60015b611e72573d8060008114611e20576040519150601f19603f3d011682016040523d82523d6000602084013e611e25565b606091505b506000815103611e6a576040517f08c379a0000000000000000000000000000000000000000000000000000000008152600401611e61906136b2565b60405180910390fd5b805181602001fd5b63150b7a0260e01b7bffffffffffffffffffffffffffffffffffffffffffffffffffffffff1916817bffffffffffffffffffffffffffffffffffffffffffffffffffffffff191614915050611ec7565b600190505b949350505050565b60606040518060a00160405280606781526020016139be60679139905090565b6060611efa826114c2565b611f39576040517f08c379a0000000000000000000000000000000000000000000000000000000008152600401611f30906138dd565b60405180910390fd5b6000611f43611ecf565b90506000815111611f635760405180602001604052806000815250611f8e565b80611f6d84612004565b604051602001611f7e929190613764565b6040516020818303038152906040525b915050919050565b611fa0838361193e565b611fad6000848484611d48565b611fec576040517f08c379a0000000000000000000000000000000000000000000000000000000008152600401611fe3906136b2565b60405180910390fd5b505050565b600080823b905060008111915050919050565b60606000820361204b576040518060400160405280600181526020017f3000000000000000000000000000000000000000000000000000000000000000815250905061215f565b600082905060005b6000821461207d57808061206690612cd2565b915050600a82612076919061392c565b9150612053565b60008167ffffffffffffffff81111561209957612098612497565b5b6040519080825280601f01601f1916602001820160405280156120cb5781602001600182028036833780820191505090505b5090505b60008514612158576001826120e491906131f0565b9150600a856120f3919061395d565b60306120ff9190613224565b60f81b8183815181106121155761211461398e565b5b60200101907effffffffffffffffffffffffffffffffffffffffffffffffffffffffffffff1916908160001a905350600a85612151919061392c565b94506120cf565b8093505050505b919050565b6000604051905090565b600080fd5b600080fd5b60007fffffffff0000000000000000000000000000000000000000000000000000000082169050919050565b6121ad81612178565b81146121b857600080fd5b50565b6000813590506121ca816121a4565b92915050565b6000602082840312156121e6576121e561216e565b5b60006121f4848285016121bb565b91505092915050565b60008115159050919050565b612212816121fd565b82525050565b600060208201905061222d6000830184612209565b92915050565b6000819050919050565b61224681612233565b82525050565b6000602082019050612261600083018461223d565b92915050565b600081519050919050565b600082825260208201905092915050565b60005b838110156122a1578082015181840152602081019050612286565b60008484015250505050565b6000601f19601f8301169050919050565b60006122c982612267565b6122d38185612272565b93506122e3818560208601612283565b6122ec816122ad565b840191505092915050565b6000602082019050818103600083015261231181846122be565b905092915050565b61232281612233565b811461232d57600080fd5b50565b60008135905061233f81612319565b92915050565b60006020828403121561235b5761235a61216e565b5b600061236984828501612330565b91505092915050565b600073ffffffffffffffffffffffffffffffffffffffff82169050919050565b600061239d82612372565b9050919050565b6123ad81612392565b82525050565b60006020820190506123c860008301846123a4565b92915050565b6123d781612392565b81146123e257600080fd5b50565b6000813590506123f4816123ce565b92915050565b600080604083850312156124115761241061216e565b5b600061241f858286016123e5565b925050602061243085828601612330565b9150509250929050565b6000806000606084860312156124535761245261216e565b5b6000612461868287016123e5565b9350506020612472868287016123e5565b925050604061248386828701612330565b9150509250925092565b600080fd5b600080fd5b7f4e487b7100000000000000000000000000000000000000000000000000000000600052604160045260246000fd5b6124cf826122ad565b810181811067ffffffffffffffff821117156124ee576124ed612497565b5b80604052505050565b6000612501612164565b905061250d82826124c6565b919050565b600067ffffffffffffffff82111561252d5761252c612497565b5b612536826122ad565b9050602081019050919050565b82818337600083830152505050565b600061256561256084612512565b6124f7565b90508281526020810184848401111561258157612580612492565b5b61258c848285612543565b509392505050565b600082601f8301126125a9576125a861248d565b5b81356125b9848260208601612552565b91505092915050565b600080604083850312156125d9576125d861216e565b5b60006125e7858286016123e5565b925050602083013567ffffffffffffffff81111561260857612607612173565b5b61261485828601612594565b9150509250929050565b6000602082840312156126345761263361216e565b5b6000612642848285016123e5565b91505092915050565b6000602082840312156126615761266061216e565b5b600082013567ffffffffffffffff81111561267f5761267e612173565b5b61268b84828501612594565b91505092915050565b61269d816121fd565b81146126a857600080fd5b50565b6000813590506126ba81612694565b92915050565b600080604083850312156126d7576126d661216e565b5b60006126e5858286016123e5565b92505060206126f6858286016126ab565b9150509250929050565b600067ffffffffffffffff82111561271b5761271a612497565b5b612724826122ad565b9050602081019050919050565b600061274461273f84612700565b6124f7565b9050828152602081018484840111156127605761275f612492565b5b61276b848285612543565b509392505050565b600082601f8301126127885761278761248d565b5b8135612798848260208601612731565b91505092915050565b600080600080608085870312156127bb576127ba61216e565b5b60006127c9878288016123e5565b94505060206127da878288016123e5565b93505060406127eb87828801612330565b925050606085013567ffffffffffffffff81111561280c5761280b612173565b5b61281887828801612773565b91505092959194509250565b6000806040838503121561283b5761283a61216e565b5b6000612849858286016123e5565b925050602061285a858286016123e5565b9150509250929050565b7f4e487b7100000000000000000000000000000000000000000000000000000000600052602260045260246000fd5b600060028204905060018216806128ab57607f821691505b6020821081036128be576128bd612864565b5b50919050565b7f4552433732313a20617070726f76656420717565727920666f72206e6f6e657860008201527f697374656e7420746f6b656e0000000000000000000000000000000000000000602082015250565b6000612920602c83612272565b915061292b826128c4565b604082019050919050565b6000602082019050818103600083015261294f81612913565b9050919050565b7f4552433732313a20617070726f76616c20746f2063757272656e74206f776e6560008201527f7200000000000000000000000000000000000000000000000000000000000000602082015250565b60006129b2602183612272565b91506129bd82612956565b604082019050919050565b600060208201905081810360008301526129e1816129a5565b9050919050565b7f4552433732313a20617070726f76652063616c6c6572206973206e6f74206f7760008201527f6e6572206e6f7220617070726f76656420666f7220616c6c0000000000000000602082015250565b6000612a44603883612272565b9150612a4f826129e8565b604082019050919050565b60006020820190508181036000830152612a7381612a37565b9050919050565b7f4552433732313a207472616e736665722063616c6c6572206973206e6f74206f60008201527f776e6572206e6f7220617070726f766564000000000000000000000000000000602082015250565b6000612ad6603183612272565b9150612ae182612a7a565b604082019050919050565b60006020820190508181036000830152612b0581612ac9565b9050919050565b600081905092915050565b6000612b2282612267565b612b2c8185612b0c565b9350612b3c818560208601612283565b80840191505092915050565b6000612b548284612b17565b915081905092915050565b7f4e465420616c7265616479206d696e7465642100000000000000000000000000600082015250565b6000612b95601383612272565b9150612ba082612b5f565b602082019050919050565b60006020820190508181036000830152612bc481612b88565b9050919050565b7f4e65656420746f20706179207570210000000000000000000000000000000000600082015250565b6000612c01600f83612272565b9150612c0c82612bcb565b602082019050919050565b60006020820190508181036000830152612c3081612bf4565b9050919050565b7f4d6178206d696e74207065722061646472657373207265616368656400000000600082015250565b6000612c6d601c83612272565b9150612c7882612c37565b602082019050919050565b60006020820190508181036000830152612c9c81612c60565b9050919050565b7f4e487b7100000000000000000000000000000000000000000000000000000000600052601160045260246000fd5b6000612cdd82612233565b91507fffffffffffffffffffffffffffffffffffffffffffffffffffffffffffffffff8203612d0f57612d0e612ca3565b5b600182019050919050565b7f4d617820746f74616c20737570706c7920726561636865642c204e6f206d6f7260008201527f65204e4654000000000000000000000000000000000000000000000000000000602082015250565b6000612d76602583612272565b9150612d8182612d1a565b604082019050919050565b60006020820190508181036000830152612da581612d69565b9050919050565b7f4552433732313a206f776e657220717565727920666f72206e6f6e657869737460008201527f656e7420746f6b656e0000000000000000000000000000000000000000000000602082015250565b6000612e08602983612272565b9150612e1382612dac565b604082019050919050565b60006020820190508181036000830152612e3781612dfb565b9050919050565b7f4552433732313a2062616c616e636520717565727920666f7220746865207a6560008201527f726f206164647265737300000000000000000000000000000000000000000000602082015250565b6000612e9a602a83612272565b9150612ea582612e3e565b604082019050919050565b60006020820190508181036000830152612ec981612e8d565b9050919050565b7f4f776e61626c653a2063616c6c6572206973206e6f7420746865206f776e6572600082015250565b6000612f06602083612272565b9150612f1182612ed0565b602082019050919050565b60006020820190508181036000830152612f3581612ef9565b9050919050565b7f4552433732313a20617070726f766520746f2063616c6c657200000000000000600082015250565b6000612f72601983612272565b9150612f7d82612f3c565b602082019050919050565b60006020820190508181036000830152612fa181612f65565b9050919050565b7f4f776e61626c653a206e6577206f776e657220697320746865207a65726f206160008201527f6464726573730000000000000000000000000000000000000000000000000000602082015250565b6000613004602683612272565b915061300f82612fa8565b604082019050919050565b6000602082019050818103600083015261303381612ff7565b9050919050565b7f4552433732313a206f70657261746f7220717565727920666f72206e6f6e657860008201527f697374656e7420746f6b656e0000000000000000000000000000000000000000602082015250565b6000613096602c83612272565b91506130a18261303a565b604082019050919050565b600060208201905081810360008301526130c581613089565b9050919050565b7f4552433732313a207472616e73666572206f6620746f6b656e2074686174206960008201527f73206e6f74206f776e0000000000000000000000000000000000000000000000602082015250565b6000613128602983612272565b9150613133826130cc565b604082019050919050565b600060208201905081810360008301526131578161311b565b9050919050565b7f4552433732313a207472616e7366657220746f20746865207a65726f2061646460008201527f7265737300000000000000000000000000000000000000000000000000000000602082015250565b60006131ba602483612272565b91506131c58261315e565b604082019050919050565b600060208201905081810360008301526131e9816131ad565b9050919050565b60006131fb82612233565b915061320683612233565b925082820390508181111561321e5761321d612ca3565b5b92915050565b600061322f82612233565b915061323a83612233565b925082820190508082111561325257613251612ca3565b5b92915050565b7f4552433732313a206d696e7420746f20746865207a65726f2061646472657373600082015250565b600061328e602083612272565b915061329982613258565b602082019050919050565b600060208201905081810360008301526132bd81613281565b9050919050565b7f4552433732313a20746f6b656e20616c7265616479206d696e74656400000000600082015250565b60006132fa601c83612272565b9150613305826132c4565b602082019050919050565b60006020820190508181036000830152613329816132ed565b9050919050565b7f45524337323155524953746f726167653a2055524920736574206f66206e6f6e60008201527f6578697374656e7420746f6b656e000000000000000000000000000000000000602082015250565b600061338c602e83612272565b915061339782613330565b604082019050919050565b600060208201905081810360008301526133bb8161337f565b9050919050565b60008190508160005260206000209050919050565b60006020601f8301049050919050565b600082821b905092915050565b6000600883026134247fffffffffffffffffffffffffffffffffffffffffffffffffffffffffffffffff826133e7565b61342e86836133e7565b95508019841693508086168417925050509392505050565b6000819050919050565b600061346b61346661346184612233565b613446565b612233565b9050919050565b6000819050919050565b61348583613450565b61349961349182613472565b8484546133f4565b825550505050565b600090565b6134ae6134a1565b6134b981848461347c565b505050565b5b818110156134dd576134d26000826134a6565b6001810190506134bf565b5050565b601f821115613522576134f3816133c2565b6134fc846133d7565b8101602085101561350b578190505b61351f613517856133d7565b8301826134be565b50505b505050565b600082821c905092915050565b600061354560001984600802613527565b1980831691505092915050565b600061355e8383613534565b9150826002028217905092915050565b61357782612267565b67ffffffffffffffff8111156135905761358f612497565b5b61359a8254612893565b6135a58282856134e1565b600060209050601f8311600181146135d857600084156135c6578287015190505b6135d08582613552565b865550613638565b601f1984166135e6866133c2565b60005b8281101561360e578489015182556001820191506020850194506020810190506135e9565b8683101561362b5784890151613627601f891682613534565b8355505b6001600288020188555050505b505050505050565b7f4552433732313a207472616e7366657220746f206e6f6e20455243373231526560008201527f63656976657220696d706c656d656e7465720000000000000000000000000000602082015250565b600061369c603283612272565b91506136a782613640565b604082019050919050565b600060208201905081810360008301526136cb8161368f565b9050919050565b7f45524337323155524953746f726167653a2055524920717565727920666f722060008201527f6e6f6e6578697374656e7420746f6b656e000000000000000000000000000000602082015250565b600061372e603183612272565b9150613739826136d2565b604082019050919050565b6000602082019050818103600083015261375d81613721565b9050919050565b60006137708285612b17565b915061377c8284612b17565b91508190509392505050565b600081519050919050565b600082825260208201905092915050565b60006137af82613788565b6137b98185613793565b93506137c9818560208601612283565b6137d2816122ad565b840191505092915050565b60006080820190506137f260008301876123a4565b6137ff60208301866123a4565b61380c604083018561223d565b818103606083015261381e81846137a4565b905095945050505050565b600081519050613838816121a4565b92915050565b6000602082840312156138545761385361216e565b5b600061386284828501613829565b91505092915050565b7f4552433732314d657461646174613a2055524920717565727920666f72206e6f60008201527f6e6578697374656e7420746f6b656e0000000000000000000000000000000000602082015250565b60006138c7602f83612272565b91506138d28261386b565b604082019050919050565b600060208201905081810360008301526138f6816138ba565b9050919050565b7f4e487b7100000000000000000000000000000000000000000000000000000000600052601260045260246000fd5b600061393782612233565b915061394283612233565b925082613952576139516138fd565b5b828204905092915050565b600061396882612233565b915061397383612233565b925082613983576139826138fd565b5b828206905092915050565b7f4e487b7100000000000000000000000000000000000000000000000000000000600052603260045260246000fdfe68747470733a2f2f61707269636f742d61647669736f72792d6369636164612d3130352e6d7970696e6174612e636c6f75642f697066732f516d565363537a755463574c38435375423751364277354474476b5345327a52616e73553466596a5237444532662fa264697066735822122007af929406f33239495e1afd6477d97874dcfeb5aae0030e2a178294cbe1f6ea64736f6c63430008110033",
  "linkReferences": {},
  "deployedLinkReferences": {}
}